{
  "_format": "hh-sol-artifact-1",
  "contractName": "Bhumichain",
  "sourceName": "contracts/Bhumichain.sol",
  "abi": [
    {
      "inputs": [],
      "stateMutability": "nonpayable",
      "type": "constructor"
    },
    {
      "anonymous": false,
      "inputs": [
        {
          "indexed": true,
          "internalType": "uint256",
          "name": "landId",
          "type": "uint256"
        },
        {
          "indexed": true,
          "internalType": "address",
          "name": "owner",
          "type": "address"
        },
        {
          "indexed": false,
          "internalType": "string",
          "name": "metadataURI",
          "type": "string"
        }
      ],
      "name": "LandAdded",
      "type": "event"
    },
    {
      "anonymous": false,
      "inputs": [
        {
          "indexed": true,
          "internalType": "uint256",
          "name": "landId",
          "type": "uint256"
        },
        {
          "indexed": true,
          "internalType": "address",
          "name": "approver",
          "type": "address"
        }
      ],
      "name": "LandApproved",
      "type": "event"
    },
    {
      "anonymous": false,
      "inputs": [
        {
          "indexed": true,
          "internalType": "uint256",
          "name": "landId",
          "type": "uint256"
        },
        {
          "indexed": true,
          "internalType": "address",
          "name": "seller",
          "type": "address"
        },
        {
          "indexed": true,
          "internalType": "address",
          "name": "buyer",
          "type": "address"
        },
        {
          "indexed": false,
          "internalType": "uint256",
          "name": "priceWei",
          "type": "uint256"
        }
      ],
      "name": "LandBought",
      "type": "event"
    },
    {
      "anonymous": false,
      "inputs": [
        {
          "indexed": true,
          "internalType": "uint256",
          "name": "landId",
          "type": "uint256"
        },
        {
          "indexed": false,
          "internalType": "uint256",
          "name": "priceWei",
          "type": "uint256"
        }
      ],
      "name": "LandListed",
      "type": "event"
    },
    {
      "anonymous": false,
      "inputs": [
        {
          "indexed": true,
          "internalType": "uint256",
          "name": "landId",
          "type": "uint256"
        }
      ],
      "name": "LandUnlisted",
      "type": "event"
    },
    {
      "stateMutability": "payable",
      "type": "fallback"
    },
    {
      "inputs": [
        {
          "internalType": "string",
          "name": "metadataURI",
          "type": "string"
        },
        {
          "internalType": "string",
          "name": "docHash",
          "type": "string"
        }
      ],
      "name": "addLand",
      "outputs": [
        {
          "internalType": "uint256",
          "name": "",
          "type": "uint256"
        }
      ],
      "stateMutability": "nonpayable",
      "type": "function"
    },
    {
      "inputs": [],
      "name": "admin",
      "outputs": [
        {
          "internalType": "address",
          "name": "",
          "type": "address"
        }
      ],
      "stateMutability": "view",
      "type": "function"
    },
    {
      "inputs": [
        {
          "internalType": "uint256",
          "name": "_landId",
          "type": "uint256"
        }
      ],
      "name": "approveLand",
      "outputs": [],
      "stateMutability": "nonpayable",
      "type": "function"
    },
    {
      "inputs": [
        {
          "internalType": "uint256",
          "name": "_landId",
          "type": "uint256"
        }
      ],
      "name": "buyLand",
      "outputs": [],
      "stateMutability": "payable",
      "type": "function"
    },
    {
      "inputs": [],
      "name": "getAllLandIds",
      "outputs": [
        {
          "internalType": "uint256[]",
          "name": "",
          "type": "uint256[]"
        }
      ],
      "stateMutability": "view",
      "type": "function"
    },
    {
      "inputs": [
        {
          "internalType": "uint256",
          "name": "_landId",
          "type": "uint256"
        }
      ],
      "name": "getLand",
      "outputs": [
        {
          "internalType": "uint256",
          "name": "landId",
          "type": "uint256"
        },
        {
          "internalType": "address",
          "name": "currentOwner",
          "type": "address"
        },
        {
          "internalType": "uint256",
          "name": "priceWei",
          "type": "uint256"
        },
        {
          "internalType": "bool",
          "name": "isListed",
          "type": "bool"
        },
        {
          "internalType": "bool",
          "name": "isApproved",
          "type": "bool"
        },
        {
          "internalType": "string",
          "name": "metadataURI",
          "type": "string"
        },
        {
          "internalType": "string",
          "name": "docHash",
          "type": "string"
        },
        {
          "internalType": "uint256",
          "name": "createdAt",
          "type": "uint256"
        },
        {
          "internalType": "uint256",
          "name": "updatedAt",
          "type": "uint256"
        },
        {
          "internalType": "address[]",
          "name": "previousOwners",
          "type": "address[]"
        }
      ],
      "stateMutability": "view",
      "type": "function"
    },
    {
      "inputs": [],
      "name": "getListedLandIds",
      "outputs": [
        {
          "internalType": "uint256[]",
          "name": "",
          "type": "uint256[]"
        }
      ],
      "stateMutability": "view",
      "type": "function"
    },
    {
      "inputs": [
        {
          "internalType": "address",
          "name": "",
          "type": "address"
        }
      ],
      "name": "isGramSabha",
      "outputs": [
        {
          "internalType": "bool",
          "name": "",
          "type": "bool"
        }
      ],
      "stateMutability": "view",
      "type": "function"
    },
    {
      "inputs": [
        {
          "internalType": "uint256",
          "name": "_landId",
          "type": "uint256"
        },
        {
          "internalType": "uint256",
          "name": "_priceWei",
          "type": "uint256"
        }
      ],
      "name": "listForSale",
      "outputs": [],
      "stateMutability": "nonpayable",
      "type": "function"
    },
    {
      "inputs": [
        {
          "internalType": "address",
          "name": "_addr",
          "type": "address"
        },
        {
          "internalType": "bool",
          "name": "_allowed",
          "type": "bool"
        }
      ],
      "name": "setGramSabha",
      "outputs": [],
      "stateMutability": "nonpayable",
      "type": "function"
    },
    {
      "inputs": [],
      "name": "totalLands",
      "outputs": [
        {
          "internalType": "uint256",
          "name": "",
          "type": "uint256"
        }
      ],
      "stateMutability": "view",
      "type": "function"
    },
    {
      "inputs": [
        {
          "internalType": "uint256",
          "name": "_landId",
          "type": "uint256"
        }
      ],
      "name": "unlist",
      "outputs": [],
      "stateMutability": "nonpayable",
      "type": "function"
    },
    {
      "stateMutability": "payable",
      "type": "receive"
    }
  ],
  "bytecode": "0x60806040526001805534801561001457600080fd5b50336000806101000a81548173ffffffffffffffffffffffffffffffffffffffff021916908373ffffffffffffffffffffffffffffffffffffffff1602179055506001600660003373ffffffffffffffffffffffffffffffffffffffff1673ffffffffffffffffffffffffffffffffffffffff16815260200190815260200160002060006101000a81548160ff021916908315150217905550612346806100bc6000396000f3fe6080604052600436106100ab5760003560e01c8063d7dee19211610064578063d7dee192146101c7578063df0f63a4146101f2578063e802753a1461021b578063e80d7fec14610246578063f02dd53f1461026f578063f851a440146102b5576100b2565b80631d8de063146100b457806338c887b2146100df5780637af774e3146101085780637b96fc6414610145578063bf5a4dd314610182578063ced39558146101ab576100b2565b366100b257005b005b3480156100c057600080fd5b506100c96102e0565b6040516100d69190611399565b60405180910390f35b3480156100eb57600080fd5b50610106600480360381019061010191906113ea565b6102ed565b005b34801561011457600080fd5b5061012f600480360381019061012a919061147c565b610445565b60405161013c9190611399565b60405180910390f35b34801561015157600080fd5b5061016c6004803603810190610167919061155b565b6105c9565b60405161017991906115a3565b60405180910390f35b34801561018e57600080fd5b506101a960048036038101906101a491906113ea565b6105e9565b005b6101c560048036038101906101c091906113ea565b6107b0565b005b3480156101d357600080fd5b506101dc610bbb565b6040516101e9919061167c565b60405180910390f35b3480156101fe57600080fd5b50610219600480360381019061021491906116ca565b610c13565b005b34801561022757600080fd5b50610230610cfc565b60405161023d919061167c565b60405180910390f35b34801561025257600080fd5b5061026d6004803603810190610268919061170a565b610d54565b005b34801561027b57600080fd5b50610296600480360381019061029191906113ea565b610f56565b6040516102ac9a999897969594939291906118a7565b60405180910390f35b3480156102c157600080fd5b506102ca6111ef565b6040516102d79190611958565b60405180910390f35b6000600380549050905090565b600660003373ffffffffffffffffffffffffffffffffffffffff1673ffffffffffffffffffffffffffffffffffffffff16815260200190815260200160002060009054906101000a900460ff16610379576040517f08c379a0000000000000000000000000000000000000000000000000000000008152600401610370906119bf565b60405180910390fd5b600060026000838152602001908152602001600020905060008160000154036103d7576040517f08c379a00000000000000000000000000000000000000000000000000000000081526004016103ce90611a2b565b60405180910390fd5b60018160030160016101000a81548160ff0219169083151502179055504281600701819055503373ffffffffffffffffffffffffffffffffffffffff16827f50201506a08371c21ad643f93521586a50c34701544f7601020f5c714798a52260405160405180910390a35050565b6000806001600081548092919061045b90611a7a565b9190505590506000600260008381526020019081526020016000209050818160000181905550338160010160006101000a81548173ffffffffffffffffffffffffffffffffffffffff021916908373ffffffffffffffffffffffffffffffffffffffff1602179055506000816002018190555060008160030160006101000a81548160ff02191690831515021790555060008160030160016101000a81548160ff021916908315150217905550868682600401918261051b929190611d08565b50848482600501918261052f929190611d08565b5042816006018190555042816007018190555060038290806001815401808255809150506001900390600052602060002001600090919091909150553373ffffffffffffffffffffffffffffffffffffffff16827f2f25d8d395adde157e78c84f5e787a2570dc20cc9f04407e50e540a742c3b02589896040516105b4929190611e14565b60405180910390a38192505050949350505050565b60066020528060005260406000206000915054906101000a900460ff1681565b806000600260008381526020019081526020016000206000015403610643576040517f08c379a000000000000000000000000000000000000000000000000000000000815260040161063a90611a2b565b60405180910390fd5b6002600082815260200190815260200160002060010160009054906101000a900473ffffffffffffffffffffffffffffffffffffffff1673ffffffffffffffffffffffffffffffffffffffff163373ffffffffffffffffffffffffffffffffffffffff16146106e7576040517f08c379a00000000000000000000000000000000000000000000000000000000081526004016106de90611e84565b60405180910390fd5b60006002600084815260200190815260200160002090508060030160009054906101000a900460ff1661074f576040517f08c379a000000000000000000000000000000000000000000000000000000000815260040161074690611ef0565b60405180910390fd5b60008160030160006101000a81548160ff02191690831515021790555061077583611213565b428160070181905550827ff9fb9170ebc789671fd96a1ac2c986e0a71b2fc6c05ef244fc492e00ae1764ac60405160405180910390a2505050565b600760009054906101000a900460ff1615610800576040517f08c379a00000000000000000000000000000000000000000000000000000000081526004016107f790611f5c565b60405180910390fd5b6001600760006101000a81548160ff02191690831515021790555060006002600083815260200190815260200160002090506000816000015403610879576040517f08c379a000000000000000000000000000000000000000000000000000000000815260040161087090611a2b565b60405180910390fd5b8060030160009054906101000a900460ff166108ca576040517f08c379a00000000000000000000000000000000000000000000000000000000081526004016108c190611fc8565b60405180910390fd5b80600201543414610910576040517f08c379a000000000000000000000000000000000000000000000000000000000815260040161090790612034565b60405180910390fd5b60008160010160009054906101000a900473ffffffffffffffffffffffffffffffffffffffff1690503373ffffffffffffffffffffffffffffffffffffffff168173ffffffffffffffffffffffffffffffffffffffff16036109a7576040517f08c379a000000000000000000000000000000000000000000000000000000000815260040161099e906120a0565b60405180910390fd5b81600801819080600181540180825580915050600190039060005260206000200160009091909190916101000a81548173ffffffffffffffffffffffffffffffffffffffff021916908373ffffffffffffffffffffffffffffffffffffffff160217905550338260010160006101000a81548173ffffffffffffffffffffffffffffffffffffffff021916908373ffffffffffffffffffffffffffffffffffffffff16021790555060008260030160006101000a81548160ff02191690831515021790555060008260020181905550428260070181905550610a8883611213565b60008173ffffffffffffffffffffffffffffffffffffffff1634604051610aae906120f1565b60006040518083038185875af1925050503d8060008114610aeb576040519150601f19603f3d011682016040523d82523d6000602084013e610af0565b606091505b5050905080610b34576040517f08c379a0000000000000000000000000000000000000000000000000000000008152600401610b2b90612152565b60405180910390fd5b3373ffffffffffffffffffffffffffffffffffffffff168273ffffffffffffffffffffffffffffffffffffffff16857f3f3320bc4441b688e1a43ec99355d292d7f8adf5f959239d8f73a1783415b5e734604051610b929190611399565b60405180910390a45050506000600760006101000a81548160ff02191690831515021790555050565b60606003805480602002602001604051908101604052809291908181526020018280548015610c0957602002820191906000526020600020905b815481526020019060010190808311610bf5575b5050505050905090565b60008054906101000a900473ffffffffffffffffffffffffffffffffffffffff1673ffffffffffffffffffffffffffffffffffffffff163373ffffffffffffffffffffffffffffffffffffffff1614610ca1576040517f08c379a0000000000000000000000000000000000000000000000000000000008152600401610c98906121be565b60405180910390fd5b80600660008473ffffffffffffffffffffffffffffffffffffffff1673ffffffffffffffffffffffffffffffffffffffff16815260200190815260200160002060006101000a81548160ff0219169083151502179055505050565b60606004805480602002602001604051908101604052809291908181526020018280548015610d4a57602002820191906000526020600020905b815481526020019060010190808311610d36575b5050505050905090565b816000600260008381526020019081526020016000206000015403610dae576040517f08c379a0000000000000000000000000000000000000000000000000000000008152600401610da590611a2b565b60405180910390fd5b6002600082815260200190815260200160002060010160009054906101000a900473ffffffffffffffffffffffffffffffffffffffff1673ffffffffffffffffffffffffffffffffffffffff163373ffffffffffffffffffffffffffffffffffffffff1614610e52576040517f08c379a0000000000000000000000000000000000000000000000000000000008152600401610e4990611e84565b60405180910390fd5b600060026000858152602001908152602001600020905060008311610eac576040517f08c379a0000000000000000000000000000000000000000000000000000000008152600401610ea39061222a565b60405180910390fd5b60018160030160016101000a81548160ff0219169083151502179055508281600201819055508060030160009054906101000a900460ff16610f0f5760018160030160006101000a81548160ff021916908315150217905550610f0e8461131b565b5b428160070181905550837f2f9b23898410304c2b8c29547330c8ef08ad5f7c80b5204df939744931e2752084604051610f489190611399565b60405180910390a250505050565b600080600080600060608060008060606000600260008d815260200190815260200160002090506000816000015403610fc4576040517f08c379a0000000000000000000000000000000000000000000000000000000008152600401610fbb90611a2b565b60405180910390fd5b80600001548160010160009054906101000a900473ffffffffffffffffffffffffffffffffffffffff1682600201548360030160009054906101000a900460ff168460030160019054906101000a900460ff168560040186600501876006015488600701548960080184805461103990611b2b565b80601f016020809104026020016040519081016040528092919081815260200182805461106590611b2b565b80156110b25780601f10611087576101008083540402835291602001916110b2565b820191906000526020600020905b81548152906001019060200180831161109557829003601f168201915b505050505094508380546110c590611b2b565b80601f01602080910402602001604051908101604052809291908181526020018280546110f190611b2b565b801561113e5780601f106111135761010080835404028352916020019161113e565b820191906000526020600020905b81548152906001019060200180831161112157829003601f168201915b50505050509350808054806020026020016040519081016040528092919081815260200182805480156111c657602002820191906000526020600020905b8160009054906101000a900473ffffffffffffffffffffffffffffffffffffffff1673ffffffffffffffffffffffffffffffffffffffff168152602001906001019080831161117c575b505050505090509a509a509a509a509a509a509a509a509a509a50509193959799509193959799565b60008054906101000a900473ffffffffffffffffffffffffffffffffffffffff1681565b600060056000838152602001908152602001600020549050600081036112395750611318565b6000600182611248919061224a565b90506000600160048054905061125e919061224a565b90508082146112d35760006004828154811061127d5761127c61227e565b5b90600052602060002001549050806004848154811061129f5761129e61227e565b5b90600052602060002001819055506001836112ba91906122ad565b6005600083815260200190815260200160002081905550505b60048054806112e5576112e46122e1565b5b60019003818190600052602060002001600090559055600060056000868152602001908152602001600020819055505050505b50565b600060056000838152602001908152602001600020540361137d57600481908060018154018082558091505060019003906000526020600020016000909190919091505560048054905060056000838152602001908152602001600020819055505b50565b6000819050919050565b61139381611380565b82525050565b60006020820190506113ae600083018461138a565b92915050565b600080fd5b600080fd5b6113c781611380565b81146113d257600080fd5b50565b6000813590506113e4816113be565b92915050565b600060208284031215611400576113ff6113b4565b5b600061140e848285016113d5565b91505092915050565b600080fd5b600080fd5b600080fd5b60008083601f84011261143c5761143b611417565b5b8235905067ffffffffffffffff8111156114595761145861141c565b5b60208301915083600182028301111561147557611474611421565b5b9250929050565b60008060008060408587031215611496576114956113b4565b5b600085013567ffffffffffffffff8111156114b4576114b36113b9565b5b6114c087828801611426565b9450945050602085013567ffffffffffffffff8111156114e3576114e26113b9565b5b6114ef87828801611426565b925092505092959194509250565b600073ffffffffffffffffffffffffffffffffffffffff82169050919050565b6000611528826114fd565b9050919050565b6115388161151d565b811461154357600080fd5b50565b6000813590506115558161152f565b92915050565b600060208284031215611571576115706113b4565b5b600061157f84828501611546565b91505092915050565b60008115159050919050565b61159d81611588565b82525050565b60006020820190506115b86000830184611594565b92915050565b600081519050919050565b600082825260208201905092915050565b6000819050602082019050919050565b6115f381611380565b82525050565b600061160583836115ea565b60208301905092915050565b6000602082019050919050565b6000611629826115be565b61163381856115c9565b935061163e836115da565b8060005b8381101561166f57815161165688826115f9565b975061166183611611565b925050600181019050611642565b5085935050505092915050565b60006020820190508181036000830152611696818461161e565b905092915050565b6116a781611588565b81146116b257600080fd5b50565b6000813590506116c48161169e565b92915050565b600080604083850312156116e1576116e06113b4565b5b60006116ef85828601611546565b9250506020611700858286016116b5565b9150509250929050565b60008060408385031215611721576117206113b4565b5b600061172f858286016113d5565b9250506020611740858286016113d5565b9150509250929050565b6117538161151d565b82525050565b600081519050919050565b600082825260208201905092915050565b60005b83811015611793578082015181840152602081019050611778565b60008484015250505050565b6000601f19601f8301169050919050565b60006117bb82611759565b6117c58185611764565b93506117d5818560208601611775565b6117de8161179f565b840191505092915050565b600081519050919050565b600082825260208201905092915050565b6000819050602082019050919050565b61181e8161151d565b82525050565b60006118308383611815565b60208301905092915050565b6000602082019050919050565b6000611854826117e9565b61185e81856117f4565b935061186983611805565b8060005b8381101561189a5781516118818882611824565b975061188c8361183c565b92505060018101905061186d565b5085935050505092915050565b6000610140820190506118bd600083018d61138a565b6118ca602083018c61174a565b6118d7604083018b61138a565b6118e4606083018a611594565b6118f16080830189611594565b81810360a083015261190381886117b0565b905081810360c083015261191781876117b0565b905061192660e083018661138a565b61193461010083018561138a565b8181036101208301526119478184611849565b90509b9a5050505050505050505050565b600060208201905061196d600083018461174a565b92915050565b7f4f6e6c79204772616d5361626861207065726d69747465640000000000000000600082015250565b60006119a9601883611764565b91506119b482611973565b602082019050919050565b600060208201905081810360008301526119d88161199c565b9050919050565b7f4c616e64206e6f7420666f756e64000000000000000000000000000000000000600082015250565b6000611a15600e83611764565b9150611a20826119df565b602082019050919050565b60006020820190508181036000830152611a4481611a08565b9050919050565b7f4e487b7100000000000000000000000000000000000000000000000000000000600052601160045260246000fd5b6000611a8582611380565b91507fffffffffffffffffffffffffffffffffffffffffffffffffffffffffffffffff8203611ab757611ab6611a4b565b5b600182019050919050565b600082905092915050565b7f4e487b7100000000000000000000000000000000000000000000000000000000600052604160045260246000fd5b7f4e487b7100000000000000000000000000000000000000000000000000000000600052602260045260246000fd5b60006002820490506001821680611b4357607f821691505b602082108103611b5657611b55611afc565b5b50919050565b60008190508160005260206000209050919050565b60006020601f8301049050919050565b600082821b905092915050565b600060088302611bbe7fffffffffffffffffffffffffffffffffffffffffffffffffffffffffffffffff82611b81565b611bc88683611b81565b95508019841693508086168417925050509392505050565b6000819050919050565b6000611c05611c00611bfb84611380565b611be0565b611380565b9050919050565b6000819050919050565b611c1f83611bea565b611c33611c2b82611c0c565b848454611b8e565b825550505050565b600090565b611c48611c3b565b611c53818484611c16565b505050565b5b81811015611c7757611c6c600082611c40565b600181019050611c59565b5050565b601f821115611cbc57611c8d81611b5c565b611c9684611b71565b81016020851015611ca5578190505b611cb9611cb185611b71565b830182611c58565b50505b505050565b600082821c905092915050565b6000611cdf60001984600802611cc1565b1980831691505092915050565b6000611cf88383611cce565b9150826002028217905092915050565b611d128383611ac2565b67ffffffffffffffff811115611d2b57611d2a611acd565b5b611d358254611b2b565b611d40828285611c7b565b6000601f831160018114611d6f5760008415611d5d578287013590505b611d678582611cec565b865550611dcf565b601f198416611d7d86611b5c565b60005b82811015611da557848901358255600182019150602085019450602081019050611d80565b86831015611dc25784890135611dbe601f891682611cce565b8355505b6001600288020188555050505b50505050505050565b82818337600083830152505050565b6000611df38385611764565b9350611e00838584611dd8565b611e098361179f565b840190509392505050565b60006020820190508181036000830152611e2f818486611de7565b90509392505050565b7f4e6f74206c616e64206f776e6572000000000000000000000000000000000000600082015250565b6000611e6e600e83611764565b9150611e7982611e38565b602082019050919050565b60006020820190508181036000830152611e9d81611e61565b9050919050565b7f4e6f74206c697374656400000000000000000000000000000000000000000000600082015250565b6000611eda600a83611764565b9150611ee582611ea4565b602082019050919050565b60006020820190508181036000830152611f0981611ecd565b9050919050565b7f5265656e7472616e637900000000000000000000000000000000000000000000600082015250565b6000611f46600a83611764565b9150611f5182611f10565b602082019050919050565b60006020820190508181036000830152611f7581611f39565b9050919050565b7f4c616e64206e6f7420666f722073616c65000000000000000000000000000000600082015250565b6000611fb2601183611764565b9150611fbd82611f7c565b602082019050919050565b60006020820190508181036000830152611fe181611fa5565b9050919050565b7f496e636f7272656374207061796d656e74000000000000000000000000000000600082015250565b600061201e601183611764565b915061202982611fe8565b602082019050919050565b6000602082019050818103600083015261204d81612011565b9050919050565b7f53656c6c65722063616e6e6f7420627579206f776e206c616e64000000000000600082015250565b600061208a601a83611764565b915061209582612054565b602082019050919050565b600060208201905081810360008301526120b98161207d565b9050919050565b600081905092915050565b50565b60006120db6000836120c0565b91506120e6826120cb565b600082019050919050565b60006120fc826120ce565b9150819050919050565b7f5061796d656e74207472616e73666572206661696c6564000000000000000000600082015250565b600061213c601783611764565b915061214782612106565b602082019050919050565b6000602082019050818103600083015261216b8161212f565b9050919050565b7f4f6e6c792061646d696e00000000000000000000000000000000000000000000600082015250565b60006121a8600a83611764565b91506121b382612172565b602082019050919050565b600060208201905081810360008301526121d78161219b565b9050919050565b7f5072696365206d757374206265203e2030000000000000000000000000000000600082015250565b6000612214601183611764565b915061221f826121de565b602082019050919050565b6000602082019050818103600083015261224381612207565b9050919050565b600061225582611380565b915061226083611380565b925082820390508181111561227857612277611a4b565b5b92915050565b7f4e487b7100000000000000000000000000000000000000000000000000000000600052603260045260246000fd5b60006122b882611380565b91506122c383611380565b92508282019050808211156122db576122da611a4b565b5b92915050565b7f4e487b7100000000000000000000000000000000000000000000000000000000600052603160045260246000fdfea2646970667358221220f1c926a6257eb6257c270bc542e68c7fcb10a9e64d5a0f08f4292b26b6bc603364736f6c63430008180033",
  "linkReferences": {},
  "deployedLinkReferences": {}
}